{
  "contractName": "Agent",
  "abi": [
    {
      "constant": true,
      "inputs": [
        {
          "name": "",
          "type": "uint256"
        }
      ],
      "name": "doctorList",
      "outputs": [
        {
          "name": "",
          "type": "address"
        }
      ],
      "payable": false,
      "stateMutability": "view",
      "type": "function"
    },
    {
      "constant": true,
      "inputs": [
        {
          "name": "",
          "type": "uint256"
        }
      ],
      "name": "patientList",
      "outputs": [
        {
          "name": "",
          "type": "address"
        }
      ],
      "payable": false,
      "stateMutability": "view",
      "type": "function"
    },
    {
      "constant": false,
      "inputs": [
        {
          "name": "_name",
          "type": "string"
        },
        {
          "name": "_age",
          "type": "uint256"
        },
        {
          "name": "_designation",
          "type": "uint256"
        },
        {
          "name": "_hash",
          "type": "string"
        }
      ],
      "name": "add_agent",
      "outputs": [
        {
          "name": "",
          "type": "string"
        }
      ],
      "payable": false,
      "stateMutability": "nonpayable",
      "type": "function"
    },
    {
      "constant": false,
      "inputs": [
        {
          "name": "_name",
          "type": "string"
        },
        {
          "name": "_age",
          "type": "uint256"
        },
        {
          "name": "_designation",
          "type": "uint256"
        },
        {
          "name": "_hash",
          "type": "string"
        }
      ],
      "name": "add_details",
      "outputs": [
        {
          "name": "",
          "type": "string"
        }
      ],
      "payable": false,
      "stateMutability": "nonpayable",
      "type": "function"
    },
    {
      "constant": true,
      "inputs": [
        {
          "name": "addr",
          "type": "address"
        }
      ],
      "name": "get_patient",
      "outputs": [
        {
          "name": "",
          "type": "string"
        },
        {
          "name": "",
          "type": "uint256"
        },
        {
          "name": "",
          "type": "uint256[]"
        },
        {
          "name": "",
          "type": "address"
        },
        {
          "name": "",
          "type": "string"
        }
      ],
      "payable": false,
      "stateMutability": "view",
      "type": "function"
    },
    {
      "constant": true,
      "inputs": [
        {
          "name": "addr",
          "type": "address"
        }
      ],
      "name": "get_doctor",
      "outputs": [
        {
          "name": "",
          "type": "string"
        },
        {
          "name": "",
          "type": "uint256"
        }
      ],
      "payable": false,
      "stateMutability": "view",
      "type": "function"
    },
    {
      "constant": true,
      "inputs": [
        {
          "name": "paddr",
          "type": "address"
        },
        {
          "name": "daddr",
          "type": "address"
        }
      ],
      "name": "get_patient_doctor_name",
      "outputs": [
        {
          "name": "",
          "type": "string"
        },
        {
          "name": "",
          "type": "string"
        }
      ],
      "payable": false,
      "stateMutability": "view",
      "type": "function"
    },
    {
      "constant": false,
      "inputs": [
        {
          "name": "addr",
          "type": "address"
        }
      ],
      "name": "permit_access",
      "outputs": [],
      "payable": true,
      "stateMutability": "payable",
      "type": "function"
    },
    {
      "constant": false,
      "inputs": [
        {
          "name": "paddr",
          "type": "address"
        },
        {
          "name": "_diagnosis",
          "type": "uint256"
        },
        {
          "name": "_hash",
          "type": "string"
        }
      ],
      "name": "insurance_claim",
      "outputs": [],
      "payable": false,
      "stateMutability": "nonpayable",
      "type": "function"
    },
    {
      "constant": false,
      "inputs": [
        {
          "name": "paddr",
          "type": "address"
        },
        {
          "name": "daddr",
          "type": "address"
        }
      ],
      "name": "remove_patient",
      "outputs": [],
      "payable": false,
      "stateMutability": "nonpayable",
      "type": "function"
    },
    {
      "constant": true,
      "inputs": [
        {
          "name": "addr",
          "type": "address"
        }
      ],
      "name": "get_accessed_doctorlist_for_patient",
      "outputs": [
        {
          "name": "",
          "type": "address[]"
        }
      ],
      "payable": false,
      "stateMutability": "view",
      "type": "function"
    },
    {
      "constant": true,
      "inputs": [
        {
          "name": "addr",
          "type": "address"
        }
      ],
      "name": "get_accessed_patientlist_for_doctor",
      "outputs": [
        {
          "name": "",
          "type": "address[]"
        }
      ],
      "payable": false,
      "stateMutability": "view",
      "type": "function"
    },
    {
      "constant": false,
      "inputs": [
        {
          "name": "daddr",
          "type": "address"
        }
      ],
      "name": "revoke_access",
      "outputs": [],
      "payable": true,
      "stateMutability": "payable",
      "type": "function"
    },
    {
      "constant": true,
      "inputs": [],
      "name": "get_patient_list",
      "outputs": [
        {
          "name": "",
          "type": "address[]"
        }
      ],
      "payable": false,
      "stateMutability": "view",
      "type": "function"
    },
    {
      "constant": true,
      "inputs": [],
      "name": "get_doctor_list",
      "outputs": [
        {
          "name": "",
          "type": "address[]"
        }
      ],
      "payable": false,
      "stateMutability": "view",
      "type": "function"
    },
    {
      "constant": true,
      "inputs": [
        {
          "name": "paddr",
          "type": "address"
        }
      ],
      "name": "get_hash",
      "outputs": [
        {
          "name": "",
          "type": "string"
        }
      ],
      "payable": false,
      "stateMutability": "view",
      "type": "function"
    }
  ],
  "bytecode": "0x608060405234801561001057600080fd5b506125c8806100206000396000f3fe6080604052600436106100df576000357c0100000000000000000000000000000000000000000000000000000000900480627ee3ce146100e45780630362fe9b1461018a578063127ca4b4146101fb5780631e3fc3b81461027657806327b1dcee146103cc5780634042d2d41461041057806356c98c48146105c857806373ee9713146106995780637e1519ce14610885578063babb1d411461094f578063bcffb7ca146109ca578063c39e963514610a0e578063dd44176b14610a7a578063e81ac05414610b20578063f02d90a414610b8c578063f24be9e714610d78575b600080fd5b3480156100f057600080fd5b506101336004803603602081101561010757600080fd5b81019080803573ffffffffffffffffffffffffffffffffffffffff169060200190929190505050610e6a565b6040518080602001828103825283818151815260200191508051906020019060200280838360005b8381101561017657808201518184015260208101905061015b565b505050509050019250505060405180910390f35b34801561019657600080fd5b506101f9600480360360408110156101ad57600080fd5b81019080803573ffffffffffffffffffffffffffffffffffffffff169060200190929190803573ffffffffffffffffffffffffffffffffffffffff169060200190929190505050610f40565b005b34801561020757600080fd5b506102346004803603602081101561021e57600080fd5b8101908080359060200190929190505050610fdc565b604051808273ffffffffffffffffffffffffffffffffffffffff1673ffffffffffffffffffffffffffffffffffffffff16815260200191505060405180910390f35b34801561028257600080fd5b506102e56004803603604081101561029957600080fd5b81019080803573ffffffffffffffffffffffffffffffffffffffff169060200190929190803573ffffffffffffffffffffffffffffffffffffffff16906020019092919050505061101a565b604051808060200180602001838103835285818151815260200191508051906020019080838360005b8381101561032957808201518184015260208101905061030e565b50505050905090810190601f1680156103565780820380516001836020036101000a031916815260200191505b50838103825284818151815260200191508051906020019080838360005b8381101561038f578082015181840152602081019050610374565b50505050905090810190601f1680156103bc5780820380516001836020036101000a031916815260200191505b5094505050505060405180910390f35b61040e600480360360208110156103e257600080fd5b81019080803573ffffffffffffffffffffffffffffffffffffffff1690602001909291905050506111e4565b005b34801561041c57600080fd5b5061045f6004803603602081101561043357600080fd5b81019080803573ffffffffffffffffffffffffffffffffffffffff169060200190929190505050611250565b6040518080602001868152602001806020018573ffffffffffffffffffffffffffffffffffffffff1673ffffffffffffffffffffffffffffffffffffffff16815260200180602001848103845289818151815260200191508051906020019080838360005b838110156104df5780820151818401526020810190506104c4565b50505050905090810190601f16801561050c5780820380516001836020036101000a031916815260200191505b50848103835287818151815260200191508051906020019060200280838360005b8381101561054857808201518184015260208101905061052d565b50505050905001848103825285818151815260200191508051906020019080838360005b8381101561058757808201518184015260208101905061056c565b50505050905090810190601f1680156105b45780820380516001836020036101000a031916815260200191505b509850505050505050505060405180910390f35b3480156105d457600080fd5b50610617600480360360208110156105eb57600080fd5b81019080803573ffffffffffffffffffffffffffffffffffffffff169060200190929190505050611560565b6040518080602001838152602001828103825284818151815260200191508051906020019080838360005b8381101561065d578082015181840152602081019050610642565b50505050905090810190601f16801561068a5780820380516001836020036101000a031916815260200191505b50935050505060405180910390f35b3480156106a557600080fd5b5061080a600480360360808110156106bc57600080fd5b81019080803590602001906401000000008111156106d957600080fd5b8201836020820111156106eb57600080fd5b8035906020019184600183028401116401000000008311171561070d57600080fd5b91908080601f016020809104026020016040519081016040528093929190818152602001838380828437600081840152601f19601f82011690508083019250505050505050919291929080359060200190929190803590602001909291908035906020019064010000000081111561078457600080fd5b82018360208201111561079657600080fd5b803590602001918460018302840111640100000000831117156107b857600080fd5b91908080601f016020809104026020016040519081016040528093929190818152602001838380828437600081840152601f19601f82011690508083019250505050505050919291929050505061168e565b6040518080602001828103825283818151815260200191508051906020019080838360005b8381101561084a57808201518184015260208101905061082f565b50505050905090810190601f1680156108775780820380516001836020036101000a031916815260200191505b509250505060405180910390f35b34801561089157600080fd5b506108d4600480360360208110156108a857600080fd5b81019080803573ffffffffffffffffffffffffffffffffffffffff16906020019092919050505061172c565b6040518080602001828103825283818151815260200191508051906020019080838360005b838110156109145780820151818401526020810190506108f9565b50505050905090810190601f1680156109415780820380516001836020036101000a031916815260200191505b509250505060405180910390f35b34801561095b57600080fd5b506109886004803603602081101561097257600080fd5b8101908080359060200190929190505050611810565b604051808273ffffffffffffffffffffffffffffffffffffffff1673ffffffffffffffffffffffffffffffffffffffff16815260200191505060405180910390f35b610a0c600480360360208110156109e057600080fd5b81019080803573ffffffffffffffffffffffffffffffffffffffff16906020019092919050505061184e565b005b348015610a1a57600080fd5b50610a236119c9565b6040518080602001828103825283818151815260200191508051906020019060200280838360005b83811015610a66578082015181840152602081019050610a4b565b505050509050019250505060405180910390f35b348015610a8657600080fd5b50610ac960048036036020811015610a9d57600080fd5b81019080803573ffffffffffffffffffffffffffffffffffffffff169060200190929190505050611a57565b6040518080602001828103825283818151815260200191508051906020019060200280838360005b83811015610b0c578082015181840152602081019050610af1565b505050509050019250505060405180910390f35b348015610b2c57600080fd5b50610b35611b27565b6040518080602001828103825283818151815260200191508051906020019060200280838360005b83811015610b78578082015181840152602081019050610b5d565b505050509050019250505060405180910390f35b348015610b9857600080fd5b50610cfd60048036036080811015610baf57600080fd5b8101908080359060200190640100000000811115610bcc57600080fd5b820183602082011115610bde57600080fd5b80359060200191846001830284011164010000000083111715610c0057600080fd5b91908080601f016020809104026020016040519081016040528093929190818152602001838380828437600081840152601f19601f820116905080830192505050505050509192919290803590602001909291908035906020019092919080359060200190640100000000811115610c7757600080fd5b820183602082011115610c8957600080fd5b80359060200191846001830284011164010000000083111715610cab57600080fd5b91908080601f016020809104026020016040519081016040528093929190818152602001838380828437600081840152601f19601f820116905080830192505050505050509192919290505050611bb5565b6040518080602001828103825283818151815260200191508051906020019080838360005b83811015610d3d578082015181840152602081019050610d22565b50505050905090810190601f168015610d6a5780820380516001836020036101000a031916815260200191505b509250505060405180910390f35b348015610d8457600080fd5b50610e6860048036036060811015610d9b57600080fd5b81019080803573ffffffffffffffffffffffffffffffffffffffff1690602001909291908035906020019092919080359060200190640100000000811115610de257600080fd5b820183602082011115610df457600080fd5b80359060200191846001830284011164010000000083111715610e1657600080fd5b91908080601f016020809104026020016040519081016040528093929190818152602001838380828437600081840152601f19601f820116905080830192505050505050509192919290505050611e42565b005b60606000600360008473ffffffffffffffffffffffffffffffffffffffff1673ffffffffffffffffffffffffffffffffffffffff168152602001908152602001600020600201905080805480602002602001604051908101604052809291908181526020018280548015610f3357602002820191906000526020600020905b8160009054906101000a900473ffffffffffffffffffffffffffffffffffffffff1673ffffffffffffffffffffffffffffffffffffffff1681526020019060010190808311610ee9575b5050505050915050919050565b610f8b600460008373ffffffffffffffffffffffffffffffffffffffff1673ffffffffffffffffffffffffffffffffffffffff168152602001908152602001600020600201836120b7565b50610fd7600360008473ffffffffffffffffffffffffffffffffffffffff1673ffffffffffffffffffffffffffffffffffffffff168152602001908152602001600020600201826120b7565b505050565b600281815481101515610feb57fe5b906000526020600020016000915054906101000a900473ffffffffffffffffffffffffffffffffffffffff1681565b606080600360008573ffffffffffffffffffffffffffffffffffffffff1673ffffffffffffffffffffffffffffffffffffffff168152602001908152602001600020600001600460008573ffffffffffffffffffffffffffffffffffffffff1673ffffffffffffffffffffffffffffffffffffffff168152602001908152602001600020600001818054600181600116156101000203166002900480601f0160208091040260200160405190810160405280929190818152602001828054600181600116156101000203166002900480156111365780601f1061110b57610100808354040283529160200191611136565b820191906000526020600020905b81548152906001019060200180831161111957829003601f168201915b50505050509150808054600181600116156101000203166002900480601f0160208091040260200160405190810160405280929190818152602001828054600181600116156101000203166002900480156111d25780601f106111a7576101008083540402835291602001916111d2565b820191906000526020600020905b8154815290600101906020018083116111b557829003601f168201915b50505050509050915091509250929050565b6111ee3382610f40565b3373ffffffffffffffffffffffffffffffffffffffff166108fc671bc16d674ec800009081150290604051600060405180830381858888f1935050505015801561123c573d6000803e3d6000fd5b506002600080828254039250508190555050565b60606000606060006060600360008773ffffffffffffffffffffffffffffffffffffffff1673ffffffffffffffffffffffffffffffffffffffff168152602001908152602001600020600001600360008873ffffffffffffffffffffffffffffffffffffffff1673ffffffffffffffffffffffffffffffffffffffff16815260200190815260200160002060010154600360008973ffffffffffffffffffffffffffffffffffffffff1673ffffffffffffffffffffffffffffffffffffffff168152602001908152602001600020600301600560008a73ffffffffffffffffffffffffffffffffffffffff1673ffffffffffffffffffffffffffffffffffffffff16815260200190815260200160002060009054906101000a900473ffffffffffffffffffffffffffffffffffffffff16600360008b73ffffffffffffffffffffffffffffffffffffffff1673ffffffffffffffffffffffffffffffffffffffff168152602001908152602001600020600401848054600181600116156101000203166002900480601f0160208091040260200160405190810160405280929190818152602001828054600181600116156101000203166002900480156114585780601f1061142d57610100808354040283529160200191611458565b820191906000526020600020905b81548152906001019060200180831161143b57829003601f168201915b50505050509450828054806020026020016040519081016040528092919081815260200182805480156114aa57602002820191906000526020600020905b815481526020019060010190808311611496575b50505050509250808054600181600116156101000203166002900480601f0160208091040260200160405190810160405280929190818152602001828054600181600116156101000203166002900480156115465780601f1061151b57610100808354040283529160200191611546565b820191906000526020600020905b81548152906001019060200180831161152957829003601f168201915b505050505090509450945094509450945091939590929450565b60606000600460008473ffffffffffffffffffffffffffffffffffffffff1673ffffffffffffffffffffffffffffffffffffffff168152602001908152602001600020600001600460008573ffffffffffffffffffffffffffffffffffffffff1673ffffffffffffffffffffffffffffffffffffffff16815260200190815260200160002060010154818054600181600116156101000203166002900480601f01602080910402602001604051908101604052809291908181526020018280546001816001161561010002031660029004801561167e5780601f106116535761010080835404028352916020019161167e565b820191906000526020600020905b81548152906001019060200180831161166157829003601f168201915b5050505050915091509150915091565b606060008314156117235760003390506116a6612301565b8681600001819052508581602001818152505083816080018190525083600360003373ffffffffffffffffffffffffffffffffffffffff1673ffffffffffffffffffffffffffffffffffffffff1681526020019081526020016000206004019080519060200190611718929190612331565b508692505050611724565b5b949350505050565b6060600360008373ffffffffffffffffffffffffffffffffffffffff1673ffffffffffffffffffffffffffffffffffffffff1681526020019081526020016000206004018054600181600116156101000203166002900480601f0160208091040260200160405190810160405280929190818152602001828054600181600116156101000203166002900480156118045780601f106117d957610100808354040283529160200191611804565b820191906000526020600020905b8154815290600101906020018083116117e757829003601f168201915b50505050509050919050565b60018181548110151561181f57fe5b906000526020600020016000915054906101000a900473ffffffffffffffffffffffffffffffffffffffff1681565b671bc16d674ec800003414151561186457600080fd5b600260008082825401925050819055506001600460008373ffffffffffffffffffffffffffffffffffffffff1673ffffffffffffffffffffffffffffffffffffffff1681526020019081526020016000206002013390806001815401808255809150509060018203906000526020600020016000909192909190916101000a81548173ffffffffffffffffffffffffffffffffffffffff021916908373ffffffffffffffffffffffffffffffffffffffff16021790555050506001600360003373ffffffffffffffffffffffffffffffffffffffff1673ffffffffffffffffffffffffffffffffffffffff1681526020019081526020016000206002018290806001815401808255809150509060018203906000526020600020016000909192909190916101000a81548173ffffffffffffffffffffffffffffffffffffffff021916908373ffffffffffffffffffffffffffffffffffffffff160217905550505050565b60606002805480602002602001604051908101604052809291908181526020018280548015611a4d57602002820191906000526020600020905b8160009054906101000a900473ffffffffffffffffffffffffffffffffffffffff1673ffffffffffffffffffffffffffffffffffffffff1681526020019060010190808311611a03575b5050505050905090565b6060600460008373ffffffffffffffffffffffffffffffffffffffff1673ffffffffffffffffffffffffffffffffffffffff168152602001908152602001600020600201805480602002602001604051908101604052809291908181526020018280548015611b1b57602002820191906000526020600020905b8160009054906101000a900473ffffffffffffffffffffffffffffffffffffffff1673ffffffffffffffffffffffffffffffffffffffff1681526020019060010190808311611ad1575b50505050509050919050565b60606001805480602002602001604051908101604052809291908181526020018280548015611bab57602002820191906000526020600020905b8160009054906101000a900473ffffffffffffffffffffffffffffffffffffffff1673ffffffffffffffffffffffffffffffffffffffff1681526020019060010190808311611b61575b5050505050905090565b606060003390506000841415611d1c57611bcd612301565b8681600001819052508581602001818152505083816080018190525080600360003373ffffffffffffffffffffffffffffffffffffffff1673ffffffffffffffffffffffffffffffffffffffff1681526020019081526020016000206000820151816000019080519060200190611c459291906123b1565b50602082015181600101556040820151816002019080519060200190611c6c929190612431565b506060820151816003019080519060200190611c899291906124bb565b506080820151816004019080519060200190611ca69291906123b1565b509050506001808390806001815401808255809150509060018203906000526020600020016000909192909190916101000a81548173ffffffffffffffffffffffffffffffffffffffff021916908373ffffffffffffffffffffffffffffffffffffffff16021790555050508692505050611e3a565b6001841415611e355785600460008373ffffffffffffffffffffffffffffffffffffffff1673ffffffffffffffffffffffffffffffffffffffff1681526020019081526020016000206000019080519060200190611d7b929190612331565b5084600460008373ffffffffffffffffffffffffffffffffffffffff1673ffffffffffffffffffffffffffffffffffffffff16815260200190815260200160002060010181905550600160028290806001815401808255809150509060018203906000526020600020016000909192909190916101000a81548173ffffffffffffffffffffffffffffffffffffffff021916908373ffffffffffffffffffffffffffffffffffffffff160217905550505085915050611e3a565b600080fd5b949350505050565b600080905060008090505b600460003373ffffffffffffffffffffffffffffffffffffffff1673ffffffffffffffffffffffffffffffffffffffff16815260200190815260200160002060020180549050811015611fb8578473ffffffffffffffffffffffffffffffffffffffff16600460003373ffffffffffffffffffffffffffffffffffffffff1673ffffffffffffffffffffffffffffffffffffffff16815260200190815260200160002060020182815481101515611f0057fe5b9060005260206000200160009054906101000a900473ffffffffffffffffffffffffffffffffffffffff1673ffffffffffffffffffffffffffffffffffffffff161415611fab573373ffffffffffffffffffffffffffffffffffffffff166108fc671bc16d674ec800009081150290604051600060405180830381858888f19350505050158015611f95573d6000803e3d6000fd5b5060026000808282540392505081905550600191505b8080600101915050611e4d565b50600115158115151415611fdf57611fd084836122a6565b611fda8433610f40565b611fe4565b600080fd5b600080905060008090505b600360008773ffffffffffffffffffffffffffffffffffffffff1673ffffffffffffffffffffffffffffffffffffffff168152602001908152602001600020600301805490508110156120af5784600360008873ffffffffffffffffffffffffffffffffffffffff1673ffffffffffffffffffffffffffffffffffffffff1681526020019081526020016000206003018281548110151561208c57fe5b906000526020600020015414156120a257600191505b8080600101915050611fef565b505050505050565b60008060009050600080905060008090505b8580549050811015612156578473ffffffffffffffffffffffffffffffffffffffff1686828154811015156120fa57fe5b9060005260206000200160009054906101000a900473ffffffffffffffffffffffffffffffffffffffff1673ffffffffffffffffffffffffffffffffffffffff16141561214957600192508091505b80806001019150506120c9565b5081151561216357600080fd5b6001858054905014156121b057848181548110151561217e57fe5b9060005260206000200160006101000a81549073ffffffffffffffffffffffffffffffffffffffff0219169055612289565b8460018680549050038154811015156121c557fe5b9060005260206000200160009054906101000a900473ffffffffffffffffffffffffffffffffffffffff1685828154811015156121fe57fe5b9060005260206000200160006101000a81548173ffffffffffffffffffffffffffffffffffffffff021916908373ffffffffffffffffffffffffffffffffffffffff16021790555084600186805490500381548110151561225b57fe5b9060005260206000200160006101000a81549073ffffffffffffffffffffffffffffffffffffffff02191690555b8480548091906001900361229d9190612508565b50505092915050565b80600360008473ffffffffffffffffffffffffffffffffffffffff1673ffffffffffffffffffffffffffffffffffffffff16815260200190815260200160002060040190805190602001906122fc929190612331565b505050565b60a06040519081016040528060608152602001600081526020016060815260200160608152602001606081525090565b828054600181600116156101000203166002900490600052602060002090601f016020900481019282601f1061237257805160ff19168380011785556123a0565b828001600101855582156123a0579182015b8281111561239f578251825591602001919060010190612384565b5b5090506123ad9190612534565b5090565b828054600181600116156101000203166002900490600052602060002090601f016020900481019282601f106123f257805160ff1916838001178555612420565b82800160010185558215612420579182015b8281111561241f578251825591602001919060010190612404565b5b50905061242d9190612534565b5090565b8280548282559060005260206000209081019282156124aa579160200282015b828111156124a95782518260006101000a81548173ffffffffffffffffffffffffffffffffffffffff021916908373ffffffffffffffffffffffffffffffffffffffff16021790555091602001919060010190612451565b5b5090506124b79190612559565b5090565b8280548282559060005260206000209081019282156124f7579160200282015b828111156124f65782518255916020019190600101906124db565b5b5090506125049190612534565b5090565b81548183558181111561252f5781836000526020600020918201910161252e9190612534565b5b505050565b61255691905b8082111561255257600081600090555060010161253a565b5090565b90565b61259991905b8082111561259557600081816101000a81549073ffffffffffffffffffffffffffffffffffffffff02191690555060010161255f565b5090565b9056fea165627a7a723058202adcdf7757d243351549e59be8178312b90ef7e4fc6cf6fbef2b8df10f8f26390029",
  "source": "pragma solidity ^0.5.1;\n\ncontract Agent {\n    struct patient {\n        string name;\n        uint age;\n        address[] doctorAccessList;\n        uint[] diagnosis;\n        string record;\n    }\n\n    struct doctor {\n        string name;\n        uint age;\n        address[] patientAccessList;\n    }\n\n    uint creditPool;\n\n    address[] public patientList;\n    address[] public doctorList;\n\n    mapping(address => patient) patientInfo;\n    mapping(address => doctor) doctorInfo;\n    mapping(address => address) Empty;\n    // might not be necessary\n    mapping(address => string) patientRecords;\n\n    function add_agent(\n        string memory _name,\n        uint _age,\n        uint _designation,\n        string memory _hash\n    ) public returns (string memory) {\n        address addr = msg.sender;\n\n        if (_designation == 0) {\n            patient memory p;\n            p.name = _name;\n            p.age = _age;\n            p.record = _hash;\n            patientInfo[msg.sender] = p;\n            patientList.push(addr) - 1;\n            return _name;\n        } else if (_designation == 1) {\n            doctorInfo[addr].name = _name;\n            doctorInfo[addr].age = _age;\n            doctorList.push(addr) - 1;\n            return _name;\n        } else {\n            revert();\n        }\n    }\n\n    //Added\n    function add_details(\n        string memory _name,\n        uint _age,\n        uint _designation,\n        string memory _hash\n    ) public returns (string memory) {\n        if (_designation == 0) {\n            address addr = msg.sender;\n            patient memory p;\n            p.name = _name;\n            p.age = _age;\n            p.record = _hash;\n            patientInfo[msg.sender].record = _hash;\n            return _name;\n        }\n    }\n\n    function get_patient(\n        address addr\n    )\n        public\n        view\n        returns (string memory, uint, uint[] memory, address, string memory)\n    {\n        // if(keccak256(patientInfo[addr].name) == keccak256(\"\"))revert();\n        return (\n            patientInfo[addr].name,\n            patientInfo[addr].age,\n            patientInfo[addr].diagnosis,\n            Empty[addr],\n            patientInfo[addr].record\n        );\n    }\n\n    function get_doctor(\n        address addr\n    ) public view returns (string memory, uint) {\n        // if(keccak256(doctorInfo[addr].name)==keccak256(\"\"))revert();\n        return (doctorInfo[addr].name, doctorInfo[addr].age);\n    }\n\n    function get_patient_doctor_name(\n        address paddr,\n        address daddr\n    ) public view returns (string memory, string memory) {\n        return (patientInfo[paddr].name, doctorInfo[daddr].name);\n    }\n\n    function permit_access(address addr) public payable {\n        require(msg.value == 2 ether);\n\n        creditPool += 2;\n\n        doctorInfo[addr].patientAccessList.push(msg.sender) - 1;\n        patientInfo[msg.sender].doctorAccessList.push(addr) - 1;\n    }\n\n    //must be called by doctor\n    function insurance_claim(\n        address paddr,\n        uint _diagnosis,\n        string memory _hash\n    ) public {\n        bool patientFound = false;\n        for (\n            uint i = 0;\n            i < doctorInfo[msg.sender].patientAccessList.length;\n            i++\n        ) {\n            if (doctorInfo[msg.sender].patientAccessList[i] == paddr) {\n                msg.sender.transfer(2 ether);\n                creditPool -= 2;\n                patientFound = true;\n            }\n        }\n        if (patientFound == true) {\n            set_hash(paddr, _hash);\n            remove_patient(paddr, msg.sender);\n        } else {\n            revert();\n        }\n\n        bool DiagnosisFound = false;\n        for (uint j = 0; j < patientInfo[paddr].diagnosis.length; j++) {\n            if (patientInfo[paddr].diagnosis[j] == _diagnosis)\n                DiagnosisFound = true;\n        }\n    }\n\n    function remove_element_in_array(\n        address[] storage Array,\n        address addr\n    ) internal returns (uint) {\n        bool check = false;\n        uint del_index = 0;\n        for (uint i = 0; i < Array.length; i++) {\n            if (Array[i] == addr) {\n                check = true;\n                del_index = i;\n            }\n        }\n        if (!check) revert();\n        else {\n            if (Array.length == 1) {\n                delete Array[del_index];\n            } else {\n                Array[del_index] = Array[Array.length - 1];\n                delete Array[Array.length - 1];\n            }\n            Array.length--;\n        }\n    }\n\n    function remove_patient(address paddr, address daddr) public {\n        remove_element_in_array(doctorInfo[daddr].patientAccessList, paddr);\n        remove_element_in_array(patientInfo[paddr].doctorAccessList, daddr);\n    }\n\n    function get_accessed_doctorlist_for_patient(\n        address addr\n    ) public view returns (address[] memory) {\n        address[] storage doctoraddr = patientInfo[addr].doctorAccessList;\n        return doctoraddr;\n    }\n\n    function get_accessed_patientlist_for_doctor(\n        address addr\n    ) public view returns (address[] memory) {\n        return doctorInfo[addr].patientAccessList;\n    }\n\n    function revoke_access(address daddr) public payable {\n        remove_patient(msg.sender, daddr);\n        msg.sender.transfer(2 ether);\n        creditPool -= 2;\n    }\n\n    function get_patient_list() public view returns (address[] memory) {\n        return patientList;\n    }\n\n    function get_doctor_list() public view returns (address[] memory) {\n        return doctorList;\n    }\n\n    function get_hash(address paddr) public view returns (string memory) {\n        return patientInfo[paddr].record;\n    }\n\n    function set_hash(address paddr, string memory _hash) internal {\n        patientInfo[paddr].record = _hash;\n    }\n}\n",
  "sourcePath": "/Users/lakshaykumar/codePlay/WebD/Grid /GridEHR/contracts/Agent.sol",
  "compiler": {
    "name": "solc",
    "version": "0.5.1+commit.c8a2cb62.Emscripten.clang"
  },
  "schemaVersion": "3.4.15",
  "updatedAt": "2023-08-20T15:13:52.081Z",
  "networkType": "ethereum",
  "devdoc": {
    "methods": {}
  },
  "userdoc": {
    "methods": {}
  }
}